:020000001628C0
:0E0006008312031321088A00200882000800DC
:1000140003208A110A128000840AA00A0319A10A83
:08002400F003031D0A28080087
:10002C00863083120313A0000130A1002430840019
:10003C003430F0000A2083168601013088008701D5
:10004C00831286010130870088010230FB000430E6
:10005C00FC00BA30FD00FD0B3128FC0B3128FB0BEA
:10006C003128000007140818E2281730D40000309B
:10007C00D50080305506F00080307002031D4828F2
:10008C0001305402031C8A2808188A285408F000EE
:10009C005508F100F00DF10D70107008243E84002D
:1000AC000008860087140711871107128030F000B2
:1000BC00803055067002031D65285408033C031854
:1000CC00692887126A2887168030F0008030550620
:1000DC007002031D73285408033C03187728071774
:1000EC00782807130230FB000430FC00BA30FD0006
:1000FC00FD0B7E28FC0B7E28FB0B7E2800000130BC
:10010C00D402031CD5033F280130D6000030D700A1
:10011C000D30D4000030D50080305506F000803012
:10012C007002031D9B2801305402031CE128560861
:10013C0057040319E1280818E1285408F000550861
:10014C00F100F00DF10D70107008243E84000008D1
:10015C00860087108030F000803055067002031D39
:10016C00B9285408033C0318BD280711BE280715ED
:10017C008030F000803055067002031DC7285408EB
:10018C00033C0318CB288715CC2887110716871238
:10019C0007130230FB000430FC00BA30FD00FD0BED
:1001AC00D528FC0BD528FB0BD52800000130D40238
:1001BC00031CD50392283928081C7D290330A20082
:1001CC000030A300081C3229871C32290330A200FE
:1001DC000030A3008030F000803023067002031D35
:1001EC00F9282208003C03181D29081C1D29220887
:1001FC00F0002308F100F00DF10D70107008243E92
:10020C00840000088600871607130230FB000430B8
:10021C00FC00BA30FD00FD0B1129FC0B1129FB0B66
:10022C00112900000130A202031CA303F02886014F
:10023C00871007118715071687120713081C322918
:10024C00881832291A30FC00F830FD00FD0B2C29DF
:10025C00FC0B2C2900002429081C7C2987187C29DC
:10026C000330A2000030A3008030F0008030230661
:10027C007002031D43292208003C03186729081C3F
:10028C0067292208F0002308F100F00DF10D701021
:10029C007008243E84000008860007158711023080
:1002AC00FB000430FC00BA30FD00FD0B5B29FC0B9D
:1002BC005B29FB0B5B2900000130A202031CA3038A
:1002CC003A2986018714071187110712871207171D
:1002DC00081C7C2988187C291A30FC00F830FD0099
:1002EC00FD0B7629FC0B762900006E29E228071EEF
:0C02FC008229871D82298E283928832939
:040308000334003486
:10030C00003400340134003402340034033400343B
:10031C00043400340534003406340034073400341B
:10032C0008340034093400341034003411340034EF
:10033C0012340034133400341434003415340034C3
:10034C0016340034173400341834003419340034A3
:10035C00203400342134003422340034233400346B
:04036C000034003425
:040370000034003421
:02400E004A2F37
:00000001FF
